:100000000C945C000C9479000C9479000C947900A9
:100010000C9479000C9479000C9479000C9479007C
:100020000C9479000C9479000C9479000C9479006C
:100030000C9479000C9479000C9479000C9479005C
:100040000C9435010C9479000C9479000C9479008F
:100050000C9479000C9479000C9479000C9479003C
:100060000C9479000C947900000000080002010053
:100070000003040700000000000000000102040863
:100080001020408001020408102001020408102002
:10009000040404040404040402020202020203032E
:1000A0000303030300000000250028002B000000CC
:1000B0000000240027002A0011241FBECFEFD8E043
:1000C000DEBFCDBF11E0A0E0B1E0EEE9F5E002C097
:1000D00005900D92A030B107D9F721E0A0E0B1E082
:1000E00001C01D92AD31B207E1F70E94BE020C942F
:1000F000CD020C94000084E190E090930301809382
:10010000020108950F931F930E947F0100910C013B
:1001100010910D0120910E0130910F01601B710BA8
:10012000820B930B0091020110910301222717FD0E
:100130002095322F6017710782079307E0F16091D5
:1001400012017091130185E00E94C6018091120195
:10015000909113018F3F91053CF021E030E0309306
:1001600007012093060107C0181619063CF01092EB
:1001700007011092060124EF31E002C024E130E0D3
:100180003093030120930201209106013091070171
:10019000232B11F4059601C00597909313018093CA
:1001A00012010E947F0160930C0170930D018093F6
:1001B0000E0190930F010E947F01009108011091A0
:1001C000090120910A0130910B01601B710B820B18
:1001D000930B0091000110910101222717FD20953A
:1001E000322F6017710782079307E0F160911001C9
:1001F0007091110183E00E94C601809110019091DD
:1002000011018F3F91053CF021E030E03093050172
:100210002093040107C0181619063CF0109205013E
:100220001092040128EC30E002C022E330E0309369
:100230000101209300012091040130910501232B3D
:1002400011F4059601C00597909311018093100158
:100250000E947F01609308017093090180930A0155
:1002600090930B011F910F9108951F920F920FB65B
:100270000F9211242F933F938F939F93AF93BF932C
:100280008091150190911601A0911701B09118016C
:100290003091140123E0230F2D3720F40196A11D86
:1002A000B11D05C026E8230F0296A11DB11D2093A4
:1002B00014018093150190931601A0931701B09338
:1002C00018018091190190911A01A0911B01B09120
:1002D0001C010196A11DB11D8093190190931A0173
:1002E000A0931B01B0931C01BF91AF919F918F917F
:1002F0003F912F910F900FBE0F901F9018952FB721
:10030000F8946091150170911601809117019091F8
:1003100018012FBF0895789484B5826084BD84B598
:10032000816084BD85B5826085BD85B5816085BDF0
:10033000EEE6F0E0808181608083E1E8F0E0108209
:10034000808182608083808181608083E0E8F0E04A
:10035000808181608083E1EBF0E080818460808334
:10036000E0EBF0E0808181608083EAE7F0E080816B
:1003700084608083808182608083808181608083CB
:100380008081806880831092C10008951F93CF936D
:10039000DF93182FEB0161E00E944E02209711F4C9
:1003A00060E004C0CF3FD10539F461E0812FDF91D7
:1003B000CF911F910C948702E12FF0E0E859FF4F95
:1003C000E491E330F9F048F4E130B9F0E230A1F51E
:1003D00084B5806284BDC8BD34C0E730E9F0E83040
:1003E00019F1E43049F580918000806280938000AB
:1003F000D0938B00C0938A0024C084B5806884BDEC
:10040000C7BD1FC080918000806880938000D0931A
:100410008900C093880015C08091B00080688093E7
:10042000B000C093B3000DC08091B0008062809393
:10043000B000C093B40005C0C038D1050CF0B5CFF2
:10044000AFCFDF91CF911F910895833081F028F4D1
:10045000813099F08230A1F008958730A9F088307A
:10046000B9F08430D1F4809180008F7D03C08091F9
:1004700080008F7780938000089584B58F7702C0C5
:1004800084B58F7D84BD08958091B0008F7703C0BF
:100490008091B0008F7D8093B0000895CF93DF935B
:1004A00090E0FC01E458FF4F2491FC01E057FF4F1E
:1004B0008491882349F190E0880F991FFC01E2554F
:1004C000FF4FA591B4918C559F4FFC01C591D491DC
:1004D0009FB7611108C0F8948C91209582238C936A
:1004E000888182230AC0623051F4F8948C91322FB3
:1004F000309583238C938881822B888304C0F89461
:100500008C91822B8C939FBFDF91CF9108950F9395
:100510001F93CF93DF931F92CDB7DEB7282F30E024
:10052000F901E859FF4F8491F901E458FF4F149104
:10053000F901E057FF4F04910023C9F0882321F00F
:1005400069830E9425026981E02FF0E0EE0FFF1F12
:10055000EC55FF4FA591B4919FB7F8948C91611120
:1005600003C01095812301C0812B8C939FBF0F90F6
:10057000DF91CF911F910F91089508950E948B01F3
:100580000E94BD020E947B00C0E0D0E00E94820079
:0E0590002097E1F30E940000F9CFF894FFCF0E
:00000001FF
