:100000000C945C000C946E000C946E000C946E00CA
:100010000C946E000C946E000C946E000C946E00A8
:100020000C946E000C944F010C946E000C946E00B6
:100030000C946E000C946E000C946E000C946E0088
:100040000C9479010C946E000C946E000C946E006C
:100050000C946E000C946E000C946E000C946E0068
:100060000C946E000C946E00000000080002010069
:100070000003040700000000000000000102040863
:100080001020408001020408102001020408102002
:10009000040404040404040402020202020203032E
:1000A0000303030300000000250028002B000000CC
:1000B0000000240027002A0011241FBECFEFD8E043
:1000C000DEBFCDBF21E0A0E0B1E001C01D92A831AC
:1000D000B207E1F70E94F4020C9404030C940000B0
:1000E000609100018BE00E94BD028091000190911F
:1000F00001018095909590930101809300010895EE
:1001000061E08DE00E94840261E08BE00E94840245
:1001100040E750E068EE73E080E090E00E94A600C7
:100120000C94EE0061E08DE00E94BD0264EF71E08E
:1001300080E090E00E94E60160E08DE00E94BD0258
:1001400064EF71E080E090E00C94E60161157105C8
:100150008105910569F481E090E0A0E0B0E0809332
:100160000B0190930C01A0930D01B0930E0108C0F8
:1001700060930B0170930C0180930D0190930E011D
:1001800050930A0140930901809170008E7F809303
:1001900070008091B0008C7F8093B0008091B1009E
:1001A000877F8093B1008091B6008F7D8093B600E9
:1001B000809170008D7F809370008091B100846089
:1001C0008093B1008091B1008C7F8093B10086E074
:1001D00090E090930301809302010895109205012D
:1001E000109206011092070110920801109204016A
:1001F00080910201909103018093B200E0E7F0E06A
:10020000808181608083089580910501909106012D
:10021000A0910701B09108010196A11DB11D809325
:10022000050190930601A0930701B0930801809106
:10023000050190910601A0910701B091080140913C
:100240000B0150910C0160910D0170910E0184170A
:100250009507A607B70710F18091040181111EC010
:1002600081E0809304018091050190910601A091A5
:100270000701B0910801841B950BA60BB70B809367
:10028000050190930601A0930701B0930801E09146
:100290000901F0910A0109951092040108951F9235
:1002A0000F920FB60F9211242F933F934F935F93AA
:1002B0006F937F938F939F93AF93BF93EF93FF932E
:1002C00080910201909103018093B2000E94040189
:1002D000FF91EF91BF91AF919F918F917F916F911E
:1002E0005F914F913F912F910F900FBE0F901F90F4
:1002F00018951F920F920FB60F9211242F933F93D0
:100300008F939F93AF93BF938091100190911101B0
:10031000A0911201B091130130910F0123E0230F3E
:100320002D3720F40196A11DB11D05C026E8230F2D
:100330000296A11DB11D20930F018093100190938F
:100340001101A0931201B0931301809114019091B7
:100350001501A0911601B09117010196A11DB11DC3
:100360008093140190931501A0931601B093170187
:10037000BF91AF919F918F913F912F910F900FBEA1
:100380000F901F9018953FB7F894809114019091A9
:100390001501A0911601B091170126B5A89B05C0C3
:1003A0002F3F19F00196A11DB11D3FBF6627782F81
:1003B000892F9A2F620F711D811D911D42E0660FDA
:1003C000771F881F991F4A95D1F708958F929F92A2
:1003D000AF92BF92CF92DF92EF92FF926B017C01BE
:1003E0000E94C3014B015C01C114D104E104F1047A
:1003F000F1F00E9403030E94C301681979098A0978
:100400009B09683E73408105910570F321E0C21A93
:10041000D108E108F10888EE880E83E0981EA11C3F
:10042000B11CC114D104E104F10429F7DDCFFF9020
:10043000EF90DF90CF90BF90AF909F908F900895F6
:10044000789484B5826084BD84B5816084BD85B5AF
:10045000826085BD85B5816085BDEEE6F0E0808176
:1004600081608083E1E8F0E0108280818260808397
:10047000808181608083E0E8F0E08081816080831A
:10048000E1EBF0E0808184608083E0EBF0E080814C
:1004900081608083EAE7F0E08081846080838081EE
:1004A0008260808380818160808380818068808396
:1004B0001092C1000895833081F028F4813099F0C2
:1004C0008230A1F008958730A9F08830B9F08430E7
:1004D000D1F4809180008F7D03C0809180008F7760
:1004E00080938000089584B58F7702C084B58F7D96
:1004F00084BD08958091B0008F7703C08091B000D3
:100500008F7D8093B0000895CF93DF9390E0FC013E
:10051000E458FF4F2491FC01E057FF4F849188235A
:1005200049F190E0880F991FFC01E255FF4FA5911A
:10053000B4918C559F4FFC01C591D4919FB7611127
:1005400008C0F8948C91209582238C938881822313
:100550000AC0623051F4F8948C91322F3095832385
:100560008C938881822B888304C0F8948C91822B91
:100570008C939FBFDF91CF9108950F931F93CF93DB
:10058000DF931F92CDB7DEB7282F30E0F901E8598D
:10059000FF4F8491F901E458FF4F1491F901E0579E
:1005A000FF4F04910023C9F0882321F069830E9442
:1005B0005B026981E02FF0E0EE0FFF1FEC55FF4F6B
:1005C000A591B4919FB7F8948C91611103C01095D7
:1005D000812301C0812B8C939FBF0F90DF91CF911E
:1005E0001F910F91089508950E9420020E94F30226
:1005F0000E948000C0E0D0E00E9492002097E1F3CA
:0C0600000E940000F9CF0895F894FFCF8D
:00000001FF
