:100000000C945C000C946E000C946E000C946E00CA
:100010000C946E000C946E000C946E000C946E00A8
:100020000C946E000C946E000C946E000C946E0098
:100030000C946E000C946E000C946E000C946E0088
:100040000C94EB000C946E000C946E000C946E00FB
:100050000C946E000C946E000C946E000C946E0068
:100060000C946E000C946E00000000080002010069
:100070000003040700000000000000000102040863
:100080001020408001020408102001020408102002
:10009000040404040404040402020202020203032E
:1000A0000303030300000000250028002B000000CC
:1000B0000000240027002A0011241FBECFEFD8E043
:1000C000DEBFCDBF21E0A0E0B1E001C01D92A531AF
:1000D000B207E1F70E9415020C9424020C94000070
:1000E00061E08DE00E94A50161E08BE00E94A50126
:1000F0000E943501609308017093090180930A0101
:1001000090930B010E9435016093040170930501E7
:10011000809306019093070108950F931F930E9407
:100120003501009108011091090120910A013091D7
:100130000B01601B710B820B930B653F71408105B6
:100140009105D0F0609102018DE00E94DE01809166
:100150000201909103018095909590930301809303
:1001600002010E9435016093080170930901809398
:100170000A0190930B012CC00E94350100910401EB
:10018000109105012091060130910701601B710B50
:10019000820B930B613D774081059105C8F060911A
:1001A00000018BE00E94DE0180910001909101012D
:1001B0008095909590930101809300010E943501F4
:1001C00060930401709305018093060190930701E9
:1001D0001F910F9108951F920F920FB60F92112445
:1001E0002F933F938F939F93AF93BF9380910D0174
:1001F00090910E01A0910F01B091100130910C016E
:1002000023E0230F2D3720F40196A11DB11D05C059
:1002100026E8230F0296A11DB11D20930C018093A7
:100220000D0190930E01A0930F01B09310018091E6
:10023000110190911201A0911301B0911401019646
:10024000A11DB11D8093110190931201A093130180
:10025000B0931401BF91AF919F918F913F912F91D6
:100260000F900FBE0F901F9018952FB7F8946091C4
:100270000D0170910E0180910F01909110012FBF1F
:100280000895789484B5826084BD84B5816084BD0E
:1002900085B5826085BD85B5816085BDEEE6F0E0FF
:1002A000808181608083E1E8F0E01082808182605B
:1002B0008083808181608083E0E8F0E080818160DC
:1002C0008083E1EBF0E0808184608083E0EBF0E00C
:1002D000808181608083EAE7F0E0808184608083B0
:1002E000808182608083808181608083808180685A
:1002F00080831092C1000895833081F028F481300A
:1003000099F08230A1F008958730A9F08830B9F0D3
:100310008430D1F4809180008F7D03C08091800073
:100320008F7780938000089584B58F7702C084B55D
:100330008F7D84BD08958091B0008F7703C0809138
:10034000B0008F7D8093B0000895CF93DF9390E04D
:10035000FC01E458FF4F2491FC01E057FF4F8491CA
:10036000882349F190E0880F991FFC01E255FF4F67
:10037000A591B4918C559F4FFC01C591D4919FB725
:10038000611108C0F8948C91209582238C93888108
:1003900082230AC0623051F4F8948C91322F309548
:1003A00083238C938881822B888304C0F8948C915A
:1003B000822B8C939FBFDF91CF9108950F931F9352
:1003C000CF93DF931F92CDB7DEB7282F30E0F9012E
:1003D000E859FF4F8491F901E458FF4F1491F90156
:1003E000E057FF4F04910023C9F0882321F069836F
:1003F0000E947C016981E02FF0E0EE0FFF1FEC55B9
:10040000FF4FA591B4919FB7F8948C91611103C0EF
:100410001095812301C0812B8C939FBF0F90DF919A
:10042000CF911F910F91089508950E9441010E945C
:1004300014020E947000C0E0D0E00E948D0020975E
:0C044000E1F30E940000F9CFF894FFCF18
:00000001FF
