:100000000C945C000C9479000C9479000C947900A9
:100010000C9479000C9479000C9479000C9479007C
:100020000C9479000C9479000C9479000C9479006C
:100030000C9479000C9479000C9479000C9479005C
:100040000C94D6000C9479000C9479000C947900EF
:100050000C9479000C9479000C9479000C9479003C
:100060000C9479000C947900000000080002010053
:100070000003040700000000000000000102040863
:100080001020408001020408102001020408102002
:10009000040404040404040402020202020203032E
:1000A0000303030300000000250028002B000000CC
:1000B0000000240027002A0011241FBECFEFD8E043
:1000C000DEBFCDBF11E0A0E0B1E0E4E8F5E002C0A2
:1000D00005900D92A230B107D9F721E0A2E0B1E07E
:1000E00001C01D92AD30B207E1F70E94B0020C943E
:1000F000C0020C9400001092030110920201809142
:100100000201909103018F3F910509F0E4F464E14D
:1001100070E080E090E00E944301609102017091E4
:10012000030185E00E94B8018091020190910301D2
:100130002091000130910101820F931F90930301E0
:1001400080930201DCCF64E670E080E090E00E94E2
:1001500043018FEF90E0909303018093020180911F
:1001600002019091030197FD18C064E170E080E006
:1001700090E00E944301609102017091030185E0CB
:100180000E94B80180910201909103012091000129
:1001900030910101821B930BDECF64E670E080E0BA
:1001A00090E00C94430108950C947B001F920F92F1
:1001B0000FB60F9211242F933F938F939F93AF937A
:1001C000BF938091050190910601A0910701B09124
:1001D00008013091040123E0230F2D3720F401960C
:1001E000A11DB11D05C026E8230F0296A11DB11D5A
:1001F000209304018093050190930601A0930701C9
:10020000B09308018091090190910A01A0910B011E
:10021000B0910C010196A11DB11D8093090190932D
:100220000A01A0930B01B0930C01BF91AF919F9174
:100230008F913F912F910F900FBE0F901F901895A7
:100240003FB7F8948091090190910A01A0910B01A8
:10025000B0910C0126B5A89B05C02F3F19F001965F
:10026000A11DB11D3FBF6627782F892F9A2F620FDE
:10027000711D811D911D42E0660F771F881F991F18
:100280004A95D1F708958F929F92AF92BF92CF92E5
:10029000DF92EF92FF926B017C010E9420014B01E3
:1002A0005C01C114D104E104F104F1F00E94BF0229
:1002B0000E942001681979098A099B09683E7340E8
:1002C0008105910570F321E0C21AD108E108F10817
:1002D00088EE880E83E0981EA11CB11CC114D104C5
:1002E000E104F10429F7DDCFFF90EF90DF90CF908C
:1002F000BF90AF909F908F900895789484B582605E
:1003000084BD84B5816084BD85B5826085BD85B5B9
:10031000816085BDEEE6F0E0808181608083E1E868
:10032000F0E01082808182608083808181608083A0
:10033000E0E8F0E0808181608083E1EBF0E08081A3
:1003400084608083E0EBF0E0808181608083EAE775
:10035000F0E08081846080838081826080838081FE
:10036000816080838081806880831092C1000895BD
:100370001F93CF93DF93182FEB0161E00E9440029F
:10038000209711F460E004C0CF3FD10539F461E05B
:10039000812FDF91CF911F910C947902E12FF0E032
:1003A000E859FF4FE491E330F9F048F4E130B9F057
:1003B000E230A1F584B5806284BDC8BD34C0E730A9
:1003C000E9F0E83019F1E43049F58091800080626D
:1003D00080938000D0938B00C0938A0024C084B5A2
:1003E000806884BDC7BD1FC08091800080688093F5
:1003F0008000D0938900C093880015C08091B00020
:1004000080688093B000C093B3000DC08091B000AD
:1004100080628093B000C093B40005C0C038D1059D
:100420000CF0B5CFAFCFDF91CF911F9108958330FE
:1004300081F028F4813099F08230A1F0089587305E
:10044000A9F08830B9F08430D1F4809180008F7D9C
:1004500003C0809180008F7780938000089584B5D9
:100460008F7702C084B58F7D84BD08958091B000E0
:100470008F7703C08091B0008F7D8093B000089586
:10048000CF93DF9390E0FC01E458FF4F2491FC01EF
:10049000E057FF4F8491882349F190E0880F991F1E
:1004A000FC01E255FF4FA591B4918C559F4FFC0183
:1004B000C591D4919FB7611108C0F8948C91209593
:1004C00082238C93888182230AC0623051F4F8948D
:1004D0008C91322F309583238C938881822B888353
:1004E00004C0F8948C91822B8C939FBFDF91CF91A5
:1004F00008950F931F93CF93DF931F92CDB7DEB76D
:10050000282F30E0F901E859FF4F8491F901E458B0
:10051000FF4F1491F901E057FF4F04910023C9F0F8
:10052000882321F069830E9417026981E02FF0E09F
:10053000EE0FFF1FEC55FF4FA591B4919FB7F894B4
:100540008C91611103C01095812301C0812B8C9384
:100550009FBF0F90DF91CF911F910F910895089544
:100560000E947D010E94AF020E94D300C0E0D0E053
:100570000E94D4002097E1F30E940000F9CF089573
:04058000F894FFCF1D
:02058400050070
:00000001FF
